:020000040800F2
:10000000680C0020D50100089B150008770D00083A
:100010007F1500083D0900085F2A00080000000065
:10002000000000000000000000000000311F000878
:100030004109000800000000C91D000899200008BF
:10004000EF010008EF010008EF010008EF010008D0
:10005000EF010008EF010008EF010008EF010008C0
:10006000EF010008EF010008EF010008EF010008B0
:10007000EF010008EF010008EF010008EF010008A0
:10008000EF010008EF010008EF010008EF01000890
:10009000EF010008EF010008EF010008EF01000880
:1000A000EF010008EF010008EF010008FD20000843
:1000B000BD210008D521000815240008EF01000823
:1000C000EF010008EF010008EF010008EF01000850
:1000D000EF01000801280008EF01000821280008AE
:1000E00045090008EF010008EF010008EF010008D2
:1000F000EF010008EF010008EF010008EF01000820
:10010000EF010008EF010008EF010008EF0100080F
:10011000EF010008EF010008EF010008EF010008FF
:10012000EF010008EF010008EF010008EF010008EF
:1001300000F002F800F03FF80AA090E8000C8244BA
:100140008344AAF10107DA4501D100F034F8AFF297
:10015000090EBAE80F0013F0010F18BFFB1A43F0A5
:1001600001031847EC9A00000C9B0000103A24BFD2
:1001700078C878C1FAD8520724BF30C830C144BF0C
:1001800004680C607047000000230024002500264E
:10019000103A28BF78C1FBD8520728BF30C148BFEA
:1001A0000B607047642900F06780002070471FB51E
:1001B0001FBD10B510BD00F0CBFA1146FFF7F7FFD9
:1001C00004F01CFA00F0E9FA03B4FFF7F2FF03BCF5
:1001D00002F0CBFC0948804709480047FEE7FEE7EC
:1001E000FEE7FEE7FEE7FEE7FEE7FEE7FEE7FEE7E7
:1001F00004480549054A064B704700009D20000849
:100200003101000868060020680C00206808002002
:1002100068080020704710B54C1084EA530404D5D8
:100220004042C1F1000138BF491E1B4204D5524271
:10023000C3F1000338BF5B1E00F02EF914F0804FAD
:1002400004D04042C1F1000138BF491E14F0004FF4
:1002500004D05242C3F1000338BF5B1E10BD000042
:100260000FB4044910B503AA029800F0F1F910BCCC
:100270005DF814FB400000202DE9F0410646002403
:1002800010687529314616A510D0AFF300800028FC
:1002900002DA404213A507E031688A0701D512A5AA
:1002A00002E0490704D511A5012401E0AFF3008065
:1002B00000210A2206F1240709E0B0FBF2FCB0FBA2
:1002C000F2F302FB1C00303078541846491C002819
:1002D000F3D123462A463046BDE8F04100F05EB92E
:1002E000000000002D0000002B0000002000000096
:1002F0002DE9F05F894604464FF0000ADFF824B18B
:10030000FB44C0F820A02046E168884700287DD043
:10031000252806D0D4E901219047206A401C20629C
:10032000F1E700255F462046E16888472028064619
:1003300007DB312E05D2B81910F8200C08B105439F
:10034000F1E7A80701D525F00405C4F81CA0002793
:10035000C4F818A02A2E09D0304602F0FFFB38B3AB
:1003600004EB8708303EC8F8186019E059F8041B00
:10037000204604EB87029161E1688847012F064619
:1003800018D1E069002820DA25F020051DE0D8F812
:10039000180000EB800006EB40003038C8F8180069
:1003A0002046E1688847064602F0D8FB0028EED1D7
:1003B000012F0AD02E2E08D12046E16888477F1CE5
:1003C0000646022F45F02005C4DBA069002803DAA9
:1003D000404245F00105A061E80701D025F0100575
:1003E000A6B1A6F14100192802D8203645F40065CF
:1003F0004A463146204625604D46FFF7D3FE60B1A0
:10040000012807D0ED1D25F0070000E007E000F10E
:10041000080978E705F1040975E730467AE7206AAC
:10042000BDE8F09FF497000040EA010310B59B0778
:100430000FD1042A0DD310C808C9121F9C42F8D04E
:1004400020BA19BA884201D9012010BD4FF0FF30FF
:1004500010BD1AB1D30703D0521C07E0002010BD15
:1004600010F8013B11F8014B1B1B07D110F8013BA1
:1004700011F8014B1B1B01D1921EF1D1184610BD82
:1004800002F0FF0343EA032242EA024200F0F4B81A
:10049000704770477047704753EA020C00F069805C
:1004A0002DE9F04B4FF00006002B1FBFB3FA83F588
:1004B00003FA05F424FA05F65E4012BF1643B2FAB9
:1004C00082F502FA05F4C5F120051EBF22FA05FCEB
:1004D00044EA0C04203556EA044C4FEA144418BF91
:1004E000641C4FF000084FF00009904271EB030CC0
:1004F00039D3002919BFB1FA81F701FA07F6B0FA2A
:1005000080F700FA07F6C7F120071EBF20FA07FCA4
:1005100046EA0C062037B6FBF4FCA7EB0507103FB4
:1005200007F01F0BCBF120060CFA0BFB2CFA06F69A
:1005300044BFB3460026202FA4BF5E464FF0000BF9
:100540005BEA060C08BF4FF0010B19EB0B09ABFB84
:10055000027C48EB0608C01B06FB02CC0BFB03CC5D
:1005600071EB0C01C1E70B46024641464846BDE827
:10057000F08B13B54FF000004FF00001AFF3008097
:10058000BDE81C40704710B500F096F8006810BD3B
:1005900010B5044600F090F8046010BD2DE9F04756
:1005A0000D4699469246044600F1240801688806E3
:1005B00004D5E06921F01001216000E00120A8428B
:1005C00001DD471B00E00027A1697A1902EB090051
:1005D000081AA0612078C00602D42046AFF300803C
:1005E000002608E0D4E901211AF806009047206AA5
:1005F000401C761C20624E45F4DB2078C0060AD5EC
:100600002046AFF3008006E0D4E901213020904776
:10061000206A401C2062381EA7F10107F4DC07E0C5
:10062000D4E9012118F805009047206A401C206297
:10063000281EA5F10105F3DC2046AFF300802078E9
:10064000000602D50220BDE8F0870120FBE700008C
:10065000074B70B50D467B4400F037F8044628463A
:1006600000F046F810B14FF0FF3070BD204670BD6D
:10067000DF3800004FF000020429C0F0128010F0B3
:10068000030C00F03B80CCF1040CBCF1020F18BF4E
:1006900000F8012BA8BF20F8022BA1EB0C0100F001
:1006A0002DB85FEAC17C24BF00F8012B00F8012BB4
:1006B00048BF00F8012B704700487047040600202F
:1006C00001694A1C02610878704700B58FB0CDE916
:1006D00001310021059105497944CDE90310114606
:1006E0006846FFF705FE0FB000BD0000E5FFFFFF05
:1006F000007B00F0800070474FF0000200B5134609
:1007000094469646203922BFA0E80C50A0E80C5031
:10071000B1F12001BFF4F7AF090728BFA0E80C50E2
:1007200048BF0CC05DF804EB890028BF40F8042BDB
:1007300008BF704748BF20F8022B11F0804F18BF48
:1007400000F8012B704700000048704704060020A5
:100750007546FFF7F9FFAE4605006946534620F09F
:100760000700854618B020B5FFF742FDBDE82040E0
:100770004FF000064FF000074FF000084FF0000B5D
:1007800021F00701AC46ACE8C009ACE8C009ACE810
:10079000C009ACE8C0098D46704710B50446AFF3F8
:1007A00000802046BDE81040FFF70EBD0146C86C32
:1007B00080B270470246002013680B400BB1012045
:1007C00000E00020704700002DE9FC476421022072
:1007D00000F0BAFA8146484606F026FA824606F04C
:1007E0003FF807464FF066321B4B05F05FFD0546AC
:1007F00005F086FA0446204606F0DEF981462046DA
:1008000006F02EF807464FF03332144B05F04EFD3C
:10081000054605F075FA044601200C210523224601
:10082000CDE900102F211E2001F0D6F8204606F059
:1008300017F805460A4A0B4B05F0FCFC0AD20A4899
:10084000006808B9012000E0002007490860642022
:1008500002F04CFDBDE8FC8766664A3F3333114029
:10086000CDCCCCCCCCCC26408C812142F0B50446FA
:100870000D4600200021092D11DDE068A5F10A06D2
:1008800006EB4607072606FA07F18843A5F10A0694
:1008900006EB460603FA06F10843E0600CE0206927
:1008A00005EB4507072606FA07F1884305EB4506E1
:1008B00003FA06F108432061072A0FDA606B561E1F
:1008C00006EB86071F2606FA07F18843561E06EB3D
:1008D000860605FA06F10843606322E00D2A0FDA66
:1008E000206BD61F06EB86071F2606FA07F1884302
:1008F000D61F06EB860605FA06F10843206310E0D2
:10090000E06AA2F10D0606EB86071F2606FA07F13C
:100910008843A2F10D0606EB860605FA06F10843A8
:10092000E062F0BD21B1826842F4A002826003E07F
:10093000826822F4A00282607047704700BFFEE721
:100940007047000010B54FF4804000F07DF8A0B172
:100950000A2002F0CBFC4FF48041164800F0C6F9A3
:1009600038B91548006808B9012000E00020124994
:1009700008604FF4804000F061F84FF4004000F050
:1009800063F8B0B10A2002F0B1FC4FF4004109480D
:1009900000F0ACF948B90848001D006808B901200A
:1009A00000E000200449091D08604FF4004000F0F9
:1009B00045F810BD00100140908121420EB500F0B5
:1009C00033FA0121084601F011FA0E21022000F04D
:1009D00099F84FF48040019000208DF808000C2019
:1009E0008DF8090001A800F043F80F21022000F063
:1009F00089F84FF40040019001A800F039F8062072
:100A00008DF8000002208DF8010003208DF802000F
:100A100001208DF80300684600F0C0FD28208DF805
:100A2000000002208DF8010001208DF802008DF8F1
:100A30000300684600F0B2FD0EBD000001490860E9
:100A40007047000014040140014600200022074BBB
:100A50001B6803EA0102054B14331B680B4013B1FA
:100A60000AB1012000E000207047000000040140AE
:100A7000002123498279002A3AD00A461268036885
:100A80009A430B461A600A1D126803689A430B1DAD
:100A90001A60027911440A6803681A430A60184A06
:100AA0000832126803689A43154B08331A601A1DFE
:100AB000126803689A43124B0C331A604279102A69
:100AC0000ED11A1F126803681A430D4B08331A60BF
:100AD0001A1D126803681A43094B0C331A600DE0A3
:100AE0000749427911440A6803681A430A6005E01D
:100AF000027911440A6803689A430A60704700004B
:100B00000004014030B500228B071C0F0F2303FAAD
:100B100004F20B4B8C1053F824309343084C8D1087
:100B200044F8253023468C1053F824308C07240FCA
:100B300000FA04F42343024C8D1044F8253030BDF4
:100B4000080001402DE9F041024600250026002062
:100B500000230024002791F803C00CF00F0591F842
:100B600003C00CF0100CBCF1000F03D091F802C0D0
:100B70004CEA050591F800C0BCF1000F31D01468B3
:100B800000202BE04FF0010C0CFA00F3B1F800C08C
:100B90000CEA03069E4220D183004FF00F0C0CFAA2
:100BA00003F7BC4305FA03FC4CEA040491F803C0C4
:100BB000BCF1280F06D14FF0010C0CFA00FCC2F872
:100BC00014C00AE091F803C0BCF1480F05D14FF002
:100BD000010C0CFA00FCC2F810C0401C0828D1D34C
:100BE0001460B1F800C0BCF1FF0F34DD5468002080
:100BF0002EE000F1080C4FF0010808FA0CF3B1F8F0
:100C000000C00CEA03069E4221D183004FF00F0C76
:100C10000CFA03F7BC4305FA03FC4CEA040491F810
:100C200003C0BCF1280F05D100F1080C08FA0CF83C
:100C3000C2F8148091F803C0BCF1480F07D100F14D
:100C4000080C4FF0010808FA0CF8C2F81080401C9C
:100C50000828CED35460BDE8F0810000F0B50A4604
:100C6000002300240021002500F00046B6F1004FCB
:100C700002D11D4EF16901E01B4E7168C0F30345BE
:100C800083B200F44016B6F5401F08D121F0706120
:100C9000154E766826F07066134F7E6012E000F401
:100CA0008016B6F5801F06D1032606FA05F4A14387
:100CB00041F0706106E0460D360103FA06F6B143D5
:100CC00041F0706122B1460D360103FA06F6314358
:100CD00000F00046B6F1004F02D1034EF16101E091
:100CE000014E7160F0BD000000000140024600208E
:100CF00093680B400BB1012000E000207047416178
:100D0000704701617047000010B5044607230122B7
:100D100021460C48FFF7AAFD00230222214609487C
:100D2000FFF7A4FD01210748FFF7FCFD00BF0221EA
:100D30000448FFF73FFD0028F9D00248FFF736FDD1
:100D400010BD0000002401402DE9F04107460C468B
:100D50000025002608E03846FFF7D6FF05440520A9
:100D600002F0C4FA701CC6B2A642F4DBB5FBF4F084
:100D700080B2BDE8F08100BFFEE7000010B54FF47F
:100D800080510C48FFF7BDFF4FF400510948FFF7B1
:100D9000B8FF00F041F84FF480510648FFF7AFFF6D
:100DA00000F03AF84FF400510248FFF7A8FF00F0B6
:100DB00033F810BD000C014010B54FF480510848C5
:100DC000FFF79DFF4FF400510548FFF79AFF00F031
:100DD00023F84FF480510248FFF793FF10BD000045
:100DE000000C014010B54FF480510A48FFF789FF0D
:100DF00000F012F84FF400510648FFF782FF00F0B0
:100E00000BF84FF400510348FFF779FF00F004F8A6
:100E100010BD0000000C0140032000BF011EA0F126
:100E20000102D0B2FAD1704708B50121142000F0B8
:100E3000DDFF4FF44040ADF8000048208DF803007E
:100E400069460748FFF77EFE0120ADF80000282024
:100E50008DF8030069460348FFF774FE08BD0000E3
:100E6000001001400008014008B50121092000F0F0
:100E7000BDFF01212D48FFF7F1FE0121082000F000
:100E8000B5FF2020ADF8000010208DF803000320EE
:100E90008DF8020069462648FFF754FE20212448B9
:100EA000FFF72FFF1020ADF8000069462048FFF73C
:100EB00049FE10211E48FFF724FF01210C2000F0FD
:100EC00095FF0220ADF8000010208DF803000320EC
:100ED0008DF8020069461648FFF734FE0120ADF890
:100EE000000010208DF8030003208DF802006946F1
:100EF0000F48FFF727FE8020ADF8000010208DF886
:100F0000030003208DF8020069460A48FFF71AFE25
:100F10004020ADF8000010208DF8030003208DF86C
:100F2000020069460348FFF70DFE08BD00023000CD
:100F3000000C0140000801402DE9FC4104460D462B
:100F400016466B4606223B21682000F042FA07460F
:100F5000BFB99DF801009DF8001040EA012000B2E1
:100F600020809DF803009DF8021040EA012000B2A5
:100F700028809DF805009DF8041040EA012000B289
:100F800030803846BDE8FC812DE9FC4104460D4621
:100F900016466B4606224321682000F01AFA0746DF
:100FA000BFB99DF801009DF8001040EA012000B291
:100FB00020809DF803009DF8021040EA012000B255
:100FC00028809DF805009DF8041040EA012000B239
:100FD00030803846BDE8FC812DE9F84F6B4602228F
:100FE0004121682000F0F5F99DF801009DF80010FE
:100FF00040EA01200FFA80FA504605F003F98046D6
:1010000000220B4B04F06AFF06460A4A0A4B04F022
:10101000A9FE044604F074FE83460849584605F0CC
:101020004BFE044605F0ACFD00B2BDE8F88F0000B1
:1010300000407540A4703D0AD74342400000C842BA
:1010400010B500200E4908600E48006820F0F0003E
:101050000C4908600846006840F030000860002035
:101060000949C1F8A40100F011F801200449086001
:1010700000F00CF800200449C1F8A00110BD0000E8
:10108000A0812142040C01400080214210B50220C1
:1010900002F052F910BD000008B50121082000F04F
:1010A000A5FE4FF44070ADF8000010208DF803004D
:1010B00003208DF8020069460448FFF743FD4FF412
:1010C00040710248FFF71DFE08BD0000000C014002
:1010D00010B500200E4908600E48006820F0F000AE
:1010E0000C4908600846006840F0300008600120A4
:1010F0000949C1F8A401FFF7C9FF012004490860AC
:10110000FFF7C4FF00200449C1F8A00110BD000092
:10111000A0812142040C01400080214270B50546A7
:1011200000241648006820F0F000144908600846C2
:10113000006840F080000860002614E0002010499C
:101140000860FFF7A3FF01200E49C1F8A001600667
:10115000040E0B487C38006808B1601CC4B2FFF76D
:1011600095FF701CC6B2082EE8DB15B9FFF7B0FF7B
:1011700001E0FFF765FF204670BD0000040C014050
:10118000A08121420080214270B5044612480068C7
:1011900020F0F000104908600846006840F0300078
:1011A000086000200D490860002512E0E0090B49A5
:1011B000091D08606006040E01200949C1F8A0015C
:1011C000FFF764FF002005490860FFF75FFF681C18
:1011D000C5B2082DEADB70BD040C0140A08121429C
:1011E0000080214210B50E48006820F0F0000C4944
:1011F00008600846006840F0300008600120094996
:1012000008600949C1F8A001FFF740FF0020054927
:101210000860FFF73BFF00200349C1F8A00110BDA3
:10122000040C0140A48121420080214210B50E48E7
:10123000006820F0F0000C4908600846006840F0A3
:10124000300008600020094908600949C1F8A4017C
:10125000FFF71CFF0120054908600549C1F8A401FA
:10126000FFF714FF10BD0000040C0140A0812142D3
:101270000080214210B500241448006820F0F000DE
:10128000124908600846006840F0800008600120AC
:101290000F490860FFF7FAFE01200E49C1F8A001CE
:1012A000FFF7F4FE07E0601CC4B2FA2C03DDFFF781
:1012B000BDFF012010BD0648803800680028F2D12B
:1012C0000349091F086000BFF4E70000040C014057
:1012D000A48121420080214238B50121084600F056
:1012E00085FD0121042000F081FD4FF40040ADF8A0
:1012F000000010208DF8030003208DF802006946DD
:101300002248FFF71FFC01212148FFF7A7FC00201E
:1013100020490860FFF7C0FE80216B2000F0DDF857
:10132000642001F0E3FF00216B2000F0D6F80320D9
:1013300000F091F8002000F086F8322000F0B0F8BC
:101340000021382000F0C9F800216A2000F0C5F81B
:101350000021232000F0C1F88021372000F0BDF8E3
:10136000752000F019F80446682C0BD101216B2080
:1013700000F0B3F800216C2000F0AFF8322000F04C
:101380008FF801E0012038BD0020FCE70008014093
:1013900000023000BC01214270B50446FFF722FF75
:1013A000D020FFF7F1FEFFF765FF2046FFF7ECFEC8
:1013B000FFF760FFFFF716FFD120FFF7E5FEFFF70D
:1013C00059FF0020FFF7AAFE0546FFF72FFF28462A
:1013D00070BD2DE9F04106460F4614461D46FFF745
:1013E00001FF002141EA4601C8B2FFF7CDFEFFF739
:1013F00041FF20B1FFF71AFF0120BDE8F081384618
:10140000FFF7C2FEFFF736FFFFF7ECFE012101EB0D
:101410004601C8B2FFF7B8FEFFF72CFF0DE0012C24
:1014200004D10020FFF77AFE287003E00120FFF7C7
:1014300075FE2870601EC4B26D1C002CEFD1FFF742
:10144000F5FE0020D9E710B50446E006010E1C2089
:1014500000F043F810BD10B50446E006010E1B2055
:1014600000F03BF810BD70B504460025BC2C01DB34
:10147000012510E0622C01DB02250CE02A2C01DBA7
:10148000032508E0142C01DB042504E00A2C01DB11
:10149000052500E0062529461A2000F01EF870BD3B
:1014A00070B50446B4F57A7F01DD4FF47A74042CEC
:1014B00000DA04244FF47A7090FBF4F0401EC5B2B9
:1014C0002946192000F009F80546264604EBD67196
:1014D000C1F34F00FFF7C7FF70BD70B505460C465E
:1014E000FFF780FED020FFF74FFEFFF7C3FE18B1D5
:1014F000FFF79CFE012070BD2846FFF745FEFFF771
:10150000B9FE2046FFF740FEFFF7B4FE18B1FFF723
:101510008DFE0120EFE7FFF789FE0020EBE72DE9C4
:10152000F04105460E4617469846FFF75BFE002140
:1015300041EA4501C8B2FFF727FEFFF79BFE20B145
:10154000FFF774FE0120BDE8F0813046FFF71CFE76
:10155000FFF790FE00240CE018F80400FFF714FEDB
:10156000FFF788FE18B1FFF761FE0120EBE7601C72
:10157000C4B2BC42F0DBFFF759FE0020E3E700BF36
:10158000FEE710B504460021204605F061FC01D8B5
:10159000204610BD84F00040FBE7704770B5002185
:1015A00000230F22C47804B3154C246804F4E064CB
:1015B000C4F5E064210AC1F10403CA40447804FA86
:1015C00003F184781440214309010E4C0678A1559B
:1015D000047804F01F050124AC4005786D11AD00BE
:1015E00005F1E025C5F8004109E0047804F01F0585
:1015F0000124AC40044D0678761145F8264070BDB4
:101600000CED00E000E400E080E100E0024901436D
:10161000024A1160704700000000FA050CED00E07E
:1016200070B500240CE0002506E00020074901EB1E
:10163000C5010855681CC5B2802DF6DB601CC4B21C
:10164000082CF0DB00F0F6F870BD0000600100200F
:1016500010B504461CB90021A62000F01EFB012C89
:1016600003D10021A72000F018FB10BD10B50446DF
:101670003CB90021C82000F010FB0021A12000F09F
:101680000CFB012C07D10021C02000F006FB00213B
:10169000A02000F002FB10BDF0B514460B46CF179A
:1016A00001EB5777C7F3C702CF1701EB5777FF104E
:1016B000A1EBC707FEB20123B340DDB24CB1134B1F
:1016C00003EBC0039B5C2B43104F07EBC007BB54DD
:1016D0001AE00E4B03EBC0039B5CDB430B4F07EBA5
:1016E000C007BB54094B03EBC0039B5C2B43074F64
:1016F00007EBC007BB54054B03EBC0039B5CDB430C
:10170000024F07EBC007BB54F0BD00006001002092
:1017100008B50121082000F069FB4FF44050ADF8F6
:10172000000014208DF8030003208DF802006946A4
:101730003948FFF707FA4FF440513748FFF7E1FA0D
:101740000021AE2000F0A9FA0021084600F0A5FA19
:101750000021102000F0A1FA0021402000F09DFAA5
:101760000021812000F099FA0021CF2000F095FAA5
:101770000021A12000F091FA0021C82000F08DFA8C
:101780000021A62000F089FA0021A82000F085FAA7
:1017900000213F2000F081FA0021D32000F07DFAE3
:1017A0000021084600F079FA0021D52000F075FAF2
:1017B0000021802000F071FA0021D92000F06DFA9C
:1017C0000021F12000F069FA0021DA2000F065FA2A
:1017D0000021122000F061FA0021DB2000F05DFA08
:1017E0000021302000F059FA0021202000F055FAA5
:1017F0000021022000F051FA00218D2000F04DFA66
:101800000021142000F049FAFFF70AFF0021AF2061
:1018100000F043FA08BD0000000C014010B502467C
:10182000012000E050430B1EA1F10104E1B2F9D107
:1018300010BD000070B500242BE004F1B001C8B267
:10184000002100F02AFA0021084600F026FA0021C3
:10185000102000F022FAFFF791FA782000F06AFBDE
:10186000FFF7C0FA402000F065FBFFF7BBFA002548
:1018700009E0094901EBC501085D00F05BFBFFF7DA
:10188000B1FA681CC5B2802DF3DBFFF795FA601C36
:10189000C4B2082CD1DB70BD600100202DE9FE4FE1
:1018A0000746884692461C460197CDF80080082CD2
:1018B00002D14FF006091FE02046E31704EB5373F3
:1018C000DB1021464FEAE47C04EB5C7C4FEAEC0C35
:1018D000A4EBCC0CBCF1000F02D04FF0010C01E0E6
:1018E0004FF0000C6344224604EBD27C4FEA6C0CB0
:1018F00003FB0CF303F0FF09AAF12000C6B2002598
:101900005EE0082C07D106EB46002F4901EB4000B2
:1019100010F805B01DE00C2C07D106EB46002B4952
:1019200001EB800010F805B013E0102C05D1284819
:1019300000EB061010F805B00BE0182C07D106EBF1
:10194000C600244901EB800010F805B001E0BDE8B5
:10195000FE8F002002901CE00BF0010028B14146F0
:1019600038460C9AFFF798FE09E00C9808B9012058
:1019700000E00020024641463846FFF78DFE4FEA60
:101980006B0B08F1010000F0FF080298401CC0B288
:10199000029002980828DFDB781CC7B2082C0BD015
:1019A00004EBD4714A100199791A8A4204D1019F3B
:1019B00000980830C0B20090DDF80080681CC5B205
:1019C0004D459EDB00BFC2E7E87C0008107F0008A1
:1019D00084830008748900082DE9FF4F87B005460D
:1019E0001746DDE914643846FFF7CBFD06900698EC
:1019F00005F0C6F8642190FBF1F9069805F0C0F8EF
:101A00000A2190FBF1F090FBF1F201FB120808EBC8
:101A10008801480005F0F0F86421029009FB01F00C
:101A200005F0EAF80190069905F043FA8346029919
:101A300005F04AFA824605F0A3F80590069805F0ED
:101A40009FF8019005F0D8F88346069905F031FA21
:101A50005A49029005F030F9824605F091F8049059
:101A6000069805F08DF8019005F0C6F883460699B2
:101A700005F01FFA8246524905F01EF9029005F062
:101A80007FF80A2190FBF1F201FB12000390002184
:101A9000384605F0DDF944D833462B220094284619
:101AA0000899FFF7FBFE05F10801C8B201234A4679
:101AB000CDE90064089900F085F805F11001C8B27D
:101AC00001234246CDE90064089900F07BF805F156
:101AD0001801C8B20123CDE90064059A089900F005
:101AE00071F805F12001C8B233462E2200940899FE
:101AF000FFF7D4FE05F12801C8B20123CDE9006447
:101B0000049A089900F05EF805F13001C8B201238B
:101B1000CDE90064039A089900F054F8FFF78AFEB3
:101B200048E00021384605F093F843D233462D2291
:101B3000009428460899FFF7B1FE05F10801C8B2E4
:101B400001234A46CDE90064089900F03BF805F10D
:101B50001001C8B201234246CDE90064089900F0A3
:101B600031F805F11801C8B20123CDE90064059AE6
:101B7000089900F027F805F12001C8B233462E225B
:101B800000940899FFF78AFE05F12801C8B20123E5
:101B9000CDE90064049A089900F014F805F13001C9
:101BA000C8B20123CDE90064039A089900F00AF84D
:101BB000FFF740FE0BB0BDE8F08F000000002041B1
:101BC0000000C8422DE9FF4F82B0064691461F46ED
:101BD000DDE90F4A4FF0000B082C01D14FF0020B4A
:101BE000002530E0781B401EC1B20A20FFF716FE28
:101BF000B9FBF0F00A21B0FBF1F201FB1208B8F1D9
:101C0000000F0ED104EBD4710BEB610101FB0561F8
:101C1000C8B223463022CDE900A40399FFF73EFE67
:101C20000FE004EBD4710BEB610101FB0561C8B25D
:101C300008F13001CAB22346CDE900A40399FFF7A9
:101C40002DFE681CC5B2BD42CCDB06B0BDE8F08FEE
:101C50002DE9F84106460F4614461D46DDF81C8066
:101C600013E0CDF8008022782B4639463046FFF746
:101C700015FE082D02D1B01DC6B205E0284605EBC1
:101C8000D07106EB6101CEB2641C2078202802DB03
:101C900020787E28E5DDBDE8F88170B505460C4664
:101CA000FFF76CF8782000F045F9FFF79BF81CB1BE
:101CB000402000F03FF902E0002000F03BF9FFF780
:101CC00091F8284600F036F9FFF78CF8FFF774F822
:101CD00070BD000000200649086048608860086107
:101CE00008620448486100208861C86170470000AC
:101CF000E0050020000048422DE9F041044684F050
:101D000000452E480168284605F0D3F82B49886025
:101D10000846806880F000450846016A284604F0BD
:101D2000CBFD264908622649204605F091F804D9E2
:101D30002449204604F08CFF17D8204A1169906886
:101D400005F0C2F807461D48C169384604F0B4FFE3
:101D500005461A4A9168506904F0AEFF06462946C6
:101D600004F0AAFD1549486020E0144A1169906802
:101D700005F0AAF807461148C169384604F09CFFEF
:101D800005460E4A116A906904F096FF07460B4A11
:101D90009168506904F090FF8046394604F08CFD4C
:101DA0000646294604F088FD0449486003488068D7
:101DB0000249086108464068BDE8F081E00500205E
:101DC00000000C4200000CC27047000029B1064A16
:101DD000D2690243044BDA6104E0034AD2698243C8
:101DE000014BDA61704700000010024029B1064A39
:101DF00092690243044B9A6104E0034A9269824368
:101E0000014B9A61704700000010024030B500217C
:101E10000022002400232D4D6D6805F00C0121B136
:101E2000042905D0082923D105E0294D056022E0C9
:101E3000274D05601FE0254D6D6805F47012234D98
:101E40006D6805F48034022505EB92421CB9214DE2
:101E5000554305600BE01D4D6D6805F400351DB15F
:101E60001C4D5543056002E0194D5543056002E0E5
:101E7000174D056000BF00BF144D6D6805F0F001FF
:101E80000909154D6B5C0568DD4045600F4D6D68B7
:101E900005F4E061090A104D6B5C4568DD40856022
:101EA0000A4D6D6805F46051C90A0B4D6B5C4568BD
:101EB000DD40C560054D6D6805F44041890B074D57
:101EC0006B5CC568B5FBF3F5056130BD00100240E1
:101ED00000127A0000093D00280000203800002090
:101EE0000146022904D003290BD0042917D10FE0A1
:101EF0004FF08042928C10B200224FF080439A84BF
:101F00000FE0094A128810B20022074B1A8008E03D
:101F1000064A128810B20022044B1A8001E0002009
:101F200000BF00BF704700002404004024080040A8
:101F30007047000070B5044600251FE004F08000E3
:101F400028B14FF480510F48FEF7DBFE04E04FF458
:101F500080510C48FEF7D3FEFEF75EFF4FF40051B0
:101F60000848FEF7CEFEFEF757FF4FF40051054834
:101F7000FEF7C5FE6006040E681CC5B2082DDDDB49
:101F800070BD0000000C014010B500F001F810BD5C
:101F90000CB50020019000903348006840F4803078
:101FA0003149086000BF3048006800F400300090FC
:101FB0000198401C0190009818B90198B0F5A06FE5
:101FC000F1D12948006800F4003010B101200090E0
:101FD00001E0002000900098012843D123480068C8
:101FE00040F01000214908600846006820F0030016
:101FF00008600846006840F0020008601A4840681F
:10200000194948600846406848600846406840F4FE
:10201000806048600846406820F47C1048600846AC
:10202000406840F4E81048600846006840F080705E
:10203000086000BF0C48006800F000700028F9D06C
:102040000948406820F00300074948600846406896
:1020500040F00200486000BF0348406800F00C00F8
:102060000828F9D10CBD00000010024000200240F9
:10207000042808D14FF0E021096941F004014FF034
:10208000E022116107E04FF0E021096921F004012D
:102090004FF0E022116170477047000010B51348FF
:1020A000006840F001001149086008464068104986
:1020B00008400E494860084600680E4908400B4930
:1020C00008600846006820F48020086008464068E0
:1020D00020F4FE0048604FF41F008860FFF754FFB3
:1020E0004FF000600449086010BD0000001002407D
:1020F0000000FFF8FFFFF6FE08ED00E010B52C48E9
:10210000007800F0800000284CD10121294800F01F
:10211000A0F9D0B12648007800F04000A8B12448CA
:10212000007800F03F003F280AD12148008840F0A5
:1021300080001F4908804FF6FF701F49088004E0A7
:102140001B480088401C1A4908801021194800F0DB
:1021500080F938B31648007800F0400078B1144890
:10216000008840F0800012490880124800F06DF9A4
:102170001149088000210F4800F0CAFA12E000203F
:102180000B4908800C4908800948008840F040004D
:10219000074908800021074800F0DDFA02210548C0
:1021A00000F0B6FA1121034800F040F910BD00001C
:1021B00080000020002C0140820000204FF0804071
:1021C000008A4FF08040008A20F001004FF08041EB
:1021D0000882704710B50121084800F03AF958B15B
:1021E0000121064800F022F90548006808B90120DD
:1021F00000E000200249086010BD0000000400401B
:102200009081214230B589B005460C46012102205B
:10221000FFF7DCFD01210D20FFF7E8FD4020ADF8C0
:10222000200018208DF8230003208DF8220008A933
:102230001348FEF787FCADF81850ADF814400020A5
:10224000ADF81A00ADF8160005A90E4800F086FAA0
:102250007020ADF804000120ADF806000020ADF8B4
:102260000C0001A9074800F005F90821054800F015
:102270004DF90121034800F0DCF809B030BD000041
:10228000000801400004004030B589B005460C4606
:1022900001210220FFF79AFD01210D20FFF7A6FD85
:1022A0008020ADF8200018208DF8230003208DF841
:1022B000220008A91348FEF745FCADF81850ADF808
:1022C00014400020ADF81A00ADF8160005A90E481C
:1022D00000F044FA7020ADF804000120ADF80600CB
:1022E0000020ADF80C0001A9074800F019F90821F9
:1022F000054800F067F90121034800F09AF809B099
:1023000030BD0000000801400004004030B589B035
:1023100005460C4601210220FFF758FD01210D2042
:10232000FFF764FD0120ADF8200018208DF8230090
:1023300003208DF8220008A91348FEF703FCADF82E
:102340001850ADF814400020ADF81A00ADF8160092
:1023500005A90E4800F002FA7020ADF80400012033
:10236000ADF806000020ADF80C0001A9074800F008
:1023700037F90821054800F083F90121034800F0EE
:1023800058F809B030BD0000000C014000040040C6
:1023900030B589B005460C4601210220FFF716FD35
:1023A00001210D20FFF722FD0220ADF820001820AA
:1023B0008DF8230003208DF8220008A91348FEF7AA
:1023C000C1FBADF81850ADF814400020ADF81A006C
:1023D000ADF8160005A90E4800F0C0F97020ADF860
:1023E00004000120ADF806000020ADF80C0001A9A2
:1023F000074800F04FF90821054800F096F901213F
:10240000034800F016F809B030BD0000000C014090
:1024100000040040044800880348008820F00100C0
:10242000014908807047000010080040CA4302823A
:10243000704721B1028842F00102028004E0028864
:102440004FF6FE731A40028070470146B1F8400013
:10245000704730B50246002000230024158A05EAA3
:102460000103958905EA010413B10CB1012000E0D4
:10247000002030BD70B5002400220023058C4FF6EB
:10248000FE7635400584028C8388048B4FF68F7569
:102490002C40B51E2C400D882C43751E2A400D89FA
:1024A0002A434D882A43144DA8420BD0134DA8420D
:1024B00008D0134DA84205D0124DA84202D0124DAB
:1024C000A84213D14FF6F7752A404D892A434FF69B
:1024D000FB752A408D882A434FF6FF652B404FF647
:1024E000FF552B408D892B43CD892B43838004835B
:1024F000CD888586028470BD002C014000340140E7
:102500000040014000440140004801400A460021CB
:10251000018B4FF6F7731940114301837047000098
:1025200070B5002400220023058C4FF6EF7635406D
:102530000584028C8388048B48F6FF752C404FF687
:10254000FF452C400D884FF6FF7606EA05252C4303
:102550004FF6DF752A400D8906EA05152A434D8896
:1025600006EA05152A43154DA84202D0144DA8428B
:102570001DD14FF67F752A404D894FF6FF7606EA4A
:1025800005152A434FF6BF752A408D8806EA0515C2
:102590002A434FF6FF352B404FF2FF752B408D89B4
:1025A00006EA85052B43CD8906EA85052B43838002
:1025B0000483CD880587028470BD0000002C014093
:1025C000003401400A460021018B4FF2FF7319408D
:1025D0004FF6FF7303EA022319430183704700009B
:1025E00070B5002400220023058C4FF6FF663540AD
:1025F0000584028C8388848B4FF68F752C404FF6B0
:10260000FC752C400D882C434FF6FF552A400D8950
:102610004FF6FF7606EA05252A434D8806EA05258A
:102620002A43154DA84202D0144DA8421DD14FF2A5
:10263000FF752A404D894FF6FF7606EA05252A43A5
:102640004FF6FF352A408D8806EA05252A434EF6C7
:10265000FF752B404DF6FF752B408D8906EA051559
:102660002B43CD8906EA05152B4383808483CD88CF
:102670008587028470BD0000002C014000340140B9
:102680000A460021818B4FF6F7731940114381836D
:102690007047000070B5002200230024058C4EF620
:1026A000FF7635400584038C8488828B48F6FF755D
:1026B0002A404FF6FF452A400D884FF6FF7606EA7E
:1026C00005252A434DF6FF752B400D8906EA053591
:1026D0002B434D8806EA05352B430B4DA84202D00B
:1026E0000A4DA84208D14BF6FF752C408D894FF654
:1026F000FF7606EA85152C4384808283CD88A0F876
:102700004050038470BD0000002C014000340140A3
:102710000A460021018C4DF6FF7319404FF6FF73F6
:1027200003EA02331943018470470A460021818B72
:102730004FF2FF7319404FF6FF7303EA0223194368
:102740008183704781867047018770478187704712
:10275000A0F8401070478184704700000022028872
:102760001D4B98420ED01D4B98420BD0B0F1804FBC
:1027700008D01B4B984205D01A4B984202D01A4BF6
:10278000984204D14FF68F731A404B881A43174B67
:10279000984207D0164B984204D04FF6FF431A4098
:1027A000CB881A4302808B8883850B8803850A4B6C
:1027B00098420BD0094B984208D00E4B984205D056
:1027C0000D4B984202D00D4B984201D10B7A0386F3
:1027D0000123838270470000002C01400034014037
:1027E0000004004000080040000C004000100040C1
:1027F00000140040004001400044014000480140F6
:1028000010B540F22551054800F069F820B140F2BA
:102810002551024800F048F810BD00000038014082
:1028200010B540F225511D4800F059F810B31B486F
:1028300000F010F9C4B21A48008800F40040C8B98A
:102840001748008800F4804060B10A2C03D00020B3
:102850001349088020E01248008840F400401049E5
:10286000088019E00D2C06D10D48008840F4804006
:102870000B49088010E00A480088C0F30D000949A0
:102880000C5407480088401C054908800846008809
:10289000C72801DD0020088010BD0000004800406E
:1028A000440000208800002010B50022002340F6DC
:1028B0006A14A14200D100BF0A1201249440A3B2BD
:1028C000DC43048010BD21B1828942F40052828130
:1028D00004E082894DF6FF731A408281704770B51B
:1028E0000246002400230025002040F66A16B1426B
:1028F00000D100BFC1F3421501F01F03012606FA03
:1029000003F3012D02D19689334006E0022D02D156
:10291000168A334001E0968A33400C12012606FAEB
:1029200004F41688344013B10CB1012000E00020FB
:1029300070BDF0B50346002400260025002040F6B7
:102940006A17B94200D100BF1846C1F3421401F022
:102950001F06012707FA06F5012C01D10C3004E00F
:10296000022C01D1103000E014301AB107682F4357
:10297000076002E00768AF430760F0BD2DE9F0474C
:1029800086B005460E460024A24600BFA146002799
:10299000B08900B100BF2F462C8A4CF6FF7004406E
:1029A000F08804432C82AC894EF6F3100440B088C2
:1029B00031890843718908430443AC81AC8A4FF6DE
:1029C000FF400440B0890443AC8201A8FFF71EFA1F
:1029D0001F48874202D1DDF810A001E0DDF80CA00D
:1029E000A88900F4004040B10AEBCA0000EB0A10CD
:1029F00031684900B0FBF1F807E00AEBCA0000EBD0
:102A00000A1031688900B0FBF1F86420B8FBF0F0DF
:102A100004012009642101FB1089A88900F4004009
:102A200040B1322000EBC900B0FBF1F000F007002C
:102A3000044308E0322000EB09106421B0FBF1F000
:102A400000F00F0004432C8106B0BDE8F0870000C1
:102A50000038014001468888C0F30800704700BF75
:102A6000FEE7490050EAC12018BF04204A0D18BFF4
:102A700040F0010040F2FF72B2EB515F08BF40F03E
:102A80000200012808BF052070472DE9F0414F1EC4
:102A900000EBC7010446D1E9000115461E4637F098
:102AA00006020DD02A46334603F000FC7F1E04EBDD
:102AB000C703D3E9002303F055F937F00602F1D13B
:102AC000022F25D0042F13D0062F18BFBDE8F081A8
:102AD0002A46334603F0EAFBD4E90A2303F042F91D
:102AE0002A46334603F0E2FBD4E9082303F03AF91F
:102AF0002A46334603F0DAFBD4E9062303F032F921
:102B00002A46334603F0D2FBD4E9042303F02AF922
:102B10002A46334603F0CAFBD4E9022303F022F924
:102B20002A46334603F0C2FBD4E90023BDE8F04156
:102B300003F018B9012204F06EBA03F013B90022B1
:102B400013461046114603F0C9B90000024A00209E
:102B5000110704F060BA000001FDFFFF30380A28B9
:102B600001D2012070470020704700BF704700006D
:102B70002DE9FE4F06460F460025684601F0EAF9AA
:102B8000002442E056F8240057F82410A0EB010A74
:102B9000BAF1000F01DB514601E0CAF1000108461D
:102BA00004F02AF883464FF08F4103F0F3FE80468D
:102BB0005DF82400002103F0AFFF16D05DF824106B
:102BC000404603F0E7FE82464FF07E5104F07CF968
:102BD000814629F0004A0F48416A504604F038F90E
:102BE00012D20120A04005430EE00A48C1694046C8
:102BF00004F02EF805D30748016A404604F028F98E
:102C000002D20120A0400543641C032CBADB2846F5
:102C1000BDE8FE8FC07C00082DE9F04D8D4F21F0FE
:102C2000004A86B005460C46BA452ADBAAEB0700E7
:102C300028430AD08848824501DC1AD1CDB106B0BC
:102C40002846BDE8F04DFFF775BF844A844B2846FF
:102C500003F02CFB07460E46824A834B284621464A
:102C600003F024FB06B03A463346BDE8F04D03F0CE
:102C700079B80120FDF78CFC06B0BDE8F04DFFF7F8
:102C80005EBF7A48824542DABAF1795F0BDA2846AC
:102C9000FFF7E7FE042808BFFFF758FF284606B0F5
:102CA0002146BDE8F08D2A460B46104603F0FEFA99
:102CB000834602466E480E460B4606217844FFF7CF
:102CC000E4FE5A46334603F0F1FA804669488A46E4
:102CD0005A46334604217844FFF7D7FE5A46334616
:102CE00003F0E4FA00223B4603F03CF802460B46B0
:102CF0004046514603F0F2F82A46234603F0D6FA3E
:102D000006B02A462346BDE8F04D03F02BB828460E
:102D100024F0004100223D463B4603F0C5FB4FF046
:102D2000FF3204F078F90646024653480F460B4638
:102D300006217844FFF7A9FE32463B4603F0B6FA77
:102D4000CDE900014D4832463B4604217844FFF767
:102D50009CFE32463B4603F0A9FA00222B4603F0C4
:102D600001F8834602913046394602F04FFF804613
:102D700043480D46504517DCDDE900015A46029BE9
:102D800003F0ACF842462B4603F090FA42462B463D
:102D900002F0E8FF012204F03EF9304A304B03F024
:102DA00075FC304A304B4CE04FF0000A52460B465F
:102DB000404602F0D7FFCDE9031052462B4610469D
:102DC000194603F073FA32463B4603F06DFBDDE92A
:102DD000033203F083F806460F46DDE900015A4648
:102DE000029B03F07BF8834600910122304639466E
:102DF00004F011F9194A1A4B03F056FB06460F4628
:102E000001224046294604F006F95A46009B03F089
:102E10004DFA32463B4603F039FC06460F46012286
:102E20005046294604F0F7F80E4DDFF858802A4640
:102E3000434603F039FB32463B4603F035FB2A4656
:102E4000434603F031FB002CD8BF81F0004106B0AF
:102E5000BDE8F08D0000F03F0000F07F075C143308
:102E600026A6913C182D4454FB21F93F0000E03F79
:102E7000506E0000666E0000DA6D0000F06D00001C
:102E80003333EF3FFB21E93F2DE9F84F04460D4670
:102E900021F0004000917349814211DC724988425F
:102EA00001DC06D12CB120462946BDE8F84FFFF7DA
:102EB00041BE6E48002DCCBF6D496E49BDE8F88F0C
:102EC0006D49814211DD6D498142D8BF4FF0FF3617
:102ED0006DDD20462946FFF7C4FD042808BFFFF733
:102EE00035FE20462946BDE8F88F6549654F25F037
:102EF0000045814233DD6449814219DD00263246B6
:102F00004FF080432046294602F02CFF80468A4637
:102F100001222046294604F07EF800223B4603F0B9
:102F2000B5FB4246534602F0D9FF04460D463EE04B
:102F300001260022BA463B462046294602F012FFEF
:102F400080460F46002253462046294603F09EFB4A
:102F500042463B4602F0C2FF04460D4627E04B497D
:102F600081421BDDDFF828A10226002253462046BD
:102F7000294603F09BF900223B4602F0F3FE80460F
:102F80000F46002253462046294603F07FFB424667
:102F90003B4602F0A3FF04460D4608E00326224606
:102FA0002B4600203B4902F099FF04460D4622467D
:102FB0002B461046194603F079F98B4682460246A5
:102FC0000B4603F073F907460246334888460B4622
:102FD00006217844FFF759FD52465B4603F066F937
:102FE00082462E488B463A46434605217844FFF7F1
:102FF0004CFD3A46434603F059F902460B46002E73
:10300000504659460CDA02F0ADFE22462B4603F03C
:103010004DF901B022462B46BDE8F04F03F044BA0B
:1030200002F0A0FE22462B4603F040F91C4A7A44E7
:1030300002EBC603D3E9002303F028FB22462B460C
:1030400003F024FB174A7A4402EBC603D3E90023BA
:1030500003F02AFA009A002AB8BF81F00041BDE8C7
:10306000F88F0000000010440000F07F182D445439
:10307000FB21F93FFB21F9BF0000DC3F0000203EAF
:103080000000F33F0000F03F0000E63F00800340F7
:103090000000F83F0000F0BFF26B0000B06B0000D2
:1030A0004E6B0000166B00002DE9F04D9446CCF1FC
:1030B000000423F000464CEA0404594F46EAD47455
:1030C0009A46884621F00042BC4206D8454240EA72
:1030D000050442EAD474BC4204D9BDE8F04D62460E
:1030E000FFF72BBDAAF14055A5F17F6555EA0C0409
:1030F0000BD0022404EAAA744A4DDFF82CE144EA1A
:10310000D87452EA000B04D00CE0BDE8F04DFFF794
:10311000BBBE002C14BF012CBDE8F08D022C30D0BA
:10312000032C32D056EA0C0B0AD0BE4220D1BA4250
:1031300009D126F0804622F080423346114617E03E
:1031400000291ADB25E0DFF8E4B0FB44002C04BFC3
:10315000DBE90001BDE8F08D012C02BFDBE90001D5
:1031600081F00041BDE8F08D022C0AD0032C0CD078
:10317000BA4212D1B8F1000F0BDA2A482C49BDE847
:10318000F08D28462B49BDE8F08D28467146BDE8F4
:10319000F08D24482849BDE8F08D921B12153C2A79
:1031A000C4BF204F244E10DCBAF1000FBEBF12F195
:1031B0003C0F00273E4608DB624602F08FFE21F0FE
:1031C0000041FFF761FE07460E4694B1012C08BF8F
:1031D00086F000460DD0194A194B022C384631466C
:1031E00015D003F053FA2A46BDE8F04D114B03F019
:1031F0004DBA002213463846314602F0C7FF04BFDD
:103200000220FDF7C5F938463146BDE8F08D03F0E0
:103210003DFA2A46BDE8F04D064B03F045B90000E3
:103220000000F07F182D4454FB2109C0AA6A000059
:10323000FB21F9BFFB210940FB21F93F075C143357
:1032400026A6A13C2DE9F0410446E07800F0C00636
:10325000E07800F03F05607800F0010098B1EF10D1
:103260002846E91705EB5171C910A5EBC101491CAE
:1032700001F0FF080B48006820B10A484146026887
:103280003846904700BF607800F0080030B105482C
:10329000406818B1B011034A516888470020BDE862
:1032A000F08100005001002010B56FF00400FEF71F
:1032B000DFFE0A4800680A49B0FBF1F009490870CE
:1032C0000846007800EB4001C1EBC0104FF6FF71DB
:1032D00001EAC0000449088010BD0000140000206D
:1032E00000127A003C0000203E0000200146114AF6
:1032F00012884A434FF0E0235A6100229A611A462D
:10330000126942F001021A6100BF4FF0E022106919
:1033100000F001021AB100F48032002AF5D04FF01B
:10332000E022126922F001024FF0E0231A6100222C
:103330009A6170473E0000200146114A12784A43C4
:103340004FF0E0235A6100229A611A46126942F056
:1033500001021A6100BF4FF0E022106900F0010283
:103360001AB100F48032002AF5D04FF0E022126941
:1033700022F001024FF0E0231A6100229A617047A7
:103380003C00002038B5044664B120208DF80000D0
:1033900028208DF8010030208DF8020038208DF8AB
:1033A000030004E0A32204216846FDF769F86A4699
:1033B000042140F69E2002F057FB01F041FF38BD8A
:1033C0003EB5044602208DF80000CA208DF80100A9
:1033D000E3208DF8020009208DF803006A460421DD
:1033E000682002F041FBA3208DF8000004F04000AB
:1033F00048B1C0208DF80100C8208DF80200C2201D
:103400008DF8030006E0A3208DF801008DF802007E
:103410008DF8030004F4C07048B1C4208DF8040096
:10342000CC208DF80500C6208DF8060006E0A3200C
:103430008DF804008DF805008DF80600A3208DF8A6
:1034400007008DF808008DF809006A460A2140F649
:10345000A72002F009FB04F0030018B120208DF82A
:10346000000002E0D8208DF800006A46012140F6F5
:10347000B62002F0F9FA04F0200018B1012000F0A3
:10348000ADF802E0002000F0A9F804F4C07008B321
:1034900004F4807060B1B2208DF800008B208DF8AC
:1034A0000100B6208DF802009B208DF803000BE090
:1034B000B0208DF8000080208DF80100B4208DF838
:1034C000020090208DF803006A46042140F6A220F5
:1034D00002F0CAFA04F0010020B3F8208DF80000D1
:1034E0006A4601214FF40B6002F0BEFAFA21072070
:1034F00000F02CFC072000F0F3FB012000F013FC8F
:10350000642000F0F3FC4FF4FA7000F002FDC821D3
:10351000304800F0A3FB282000F0BCFB0A2000F09C
:10352000CCFB08E0D8208DF800006A4601214FF45A
:103530000B6002F099FA04F0020018B1D9208DF85E
:10354000000002E0D8208DF800006A46012140F218
:103550003D7002F089FA04F0040018B1012000F077
:1035600069F802E0002000F065F804F0100018B1DE
:103570000120FFF707FF02E00020FFF703FF44F000
:1035800008001549488101F05BFE0020124988734C
:1035900004F0400018B10846807B801D887304F455
:1035A000C07020B10C48807B801D0B49887304F0EB
:1035B000140020B10848807B10300749887304F05C
:1035C000030020B10448807B001D0349887300205C
:1035D0003EBD000009E3CA02500100203EB504468A
:1035E0006CB10EA1D1E900208968CDE900200291DB
:1035F0006A4609214FF4976002F036FA3EBD0AA2EE
:10360000D2E900109268CDE9010200916A460921D1
:103610004FF4976002F028FAF0E70000B8AAB38DE3
:10362000B4980D355D000000B8AAAAAAB088C3C539
:10363000C700000038B5044664B1C0208DF8000012
:10364000C2208DF80100C4208DF80200C6208DF83C
:10365000030004E08B2204216846FCF711FF6A4650
:10366000042140F6982002F0FFF901F0E9FD38BD91
:1036700010B5C8234FF48062024940F6F63001F0DD
:1036800073FC10BDA27000082DE9F04F8DB0074605
:10369000884615469946DDE9166B002400203080E7
:1036A0006B49887B5A4605A901F02AFD18B1601EB6
:1036B0000DB0BDE8F08F6648807A00F01400002855
:1036C00067D09DF8140000069DF8151040EA0140EF
:1036D0009DF8161040EA01209DF817100843286055
:1036E0009DF8180000069DF8191040EA01409DF869
:1036F0001A1040EA01209DF81B10084368609DF8ED
:103700001C0000069DF81D1040EA01409DF81E10A7
:1037100040EA01209DF81F100843A8609DF8200092
:1037200000069DF8211040EA01409DF8221040EA71
:1037300001209DF823100843E86004F11000C4B292
:10374000286800140190686800140290A8680014AA
:103750000390E8680014049001984043029901FB2B
:103760000100039901FB0100049901FB010ABAF170
:10377000706F02DBBAF1885F05DD01F061FD0020AA
:103780003080401E94E7B6F9000040F4807030802D
:1037900000BF2F48807A00F0400020B305A9601CCC
:1037A000085C095D40EA012000B2A8F8000005A904
:1037B000E01C095C05AAA01C105C41EA002000B2D4
:1037C000A8F8020005A9601D095C201D105C41EAF3
:1037D000002000B2A8F80400A01DC4B2B6F9000091
:1037E00040F0080030801A48408900F4C07008B3E7
:1037F00005A9601C085C095D40EA012000B2388020
:1038000005A9E01C095C05AAA01C105C41EA002087
:1038100000B2788005A9601D095C201D105C41EA9A
:10382000002000B2B880A01DC4B2B6F9000040F07C
:10383000700030800648807A00F0030018B105A9B6
:103840000819FFF7FFFC484601F020F800202FE799
:103850005001002070B588B0064601A801F0D8F9E3
:10386000BDF804000021C90341EA5045C40344489F
:10387000007A00F0030056F8200005904048007AD6
:1038800000F0040010B10598404205903C48007AD1
:10389000C0F3C10056F8200006903948007A00F0C5
:1038A000200010B10698404206903548007AC0F3D7
:1038B000811056F8200007903148008900F480708C
:1038C00010B10798404207900598C117A0FB042348
:1038D00001FB043100FB0510810041EA9270059064
:1038E0000698C117A0FB042301FB043100FB05105F
:1038F000810041EA927006900798C117A0FB04234B
:1039000001FB043100FB0510810041EA9270079031
:103910000598000E8DF808000598000C8DF8090038
:103920000598000A8DF80A000598C0B28DF80B00C2
:103930000698000E8DF80C000698000C8DF80D000E
:103940000698000A8DF80E000698C0B28DF80F0098
:103950000798000E8DF810000798000C8DF81100E4
:103960000798000A8DF812000798C0B28DF813006E
:1039700002AA0C214FF4257002F076F808B070BD51
:103980005001002030B585B0044616A207CA02AB2C
:1039900007C3C82C03DD4FF0FF3005B030BDC82091
:1039A00090FBF4F0401E85B2280A8DF80000E8B2C2
:1039B0008DF801006A46022140F2162002F054F808
:1039C00010B14FF0FF30E8E702AA0C2140F6C12009
:1039D00002F04AF810B14FF0FF30DEE7044884816E
:1039E0000020DAE7FEF2ABC4AAF1DFDFBBAFDFDF16
:1039F000500100201FB504464848007A00F003003B
:103A000054F8200001904548007A00F0040010B1FD
:103A10000198404201904148007AC0F3C10054F837
:103A2000200002903D48007A00F0200010B102987A
:103A3000404202903948007AC0F3811054F82000C7
:103A400003903648008900F4807010B1039840421A
:103A500003903349019880FB0101800F40EA810007
:103A600001902F49029880FB0110820042EA917078
:103A700002902B49039880FB0110820042EA91706A
:103A800003900198000E8DF800000198000C8DF84D
:103A900001000198000A8DF802000198C0B28DF86B
:103AA00003006A4604214FF4747001F0DDFF18B181
:103AB0004FF0FF3004B010BD0298000E8DF80000EA
:103AC0000298000C8DF801000298000A8DF802009F
:103AD0000298C0B28DF803006A4604214FF4757055
:103AE00001F0C2FF10B14FF0FF30E3E70398000E82
:103AF0008DF800000398000C8DF801000398000A6F
:103B00008DF802000398C0B28DF803006A460421C4
:103B10004FF4767001F0A8FFCCE7000050010020C0
:103B200009E3CA0210B586B0044647A000680390B6
:103B300046A00068029046A00068019045A0006879
:103B4000009004F0030003A9085C8DF8140003A89A
:103B5000C4F3C101405C8DF8150003A8C4F38111C2
:103B6000405C8DF8160004F0030002A9085C8DF893
:103B7000100002A8C4F3C101405C8DF8110002A836
:103B8000C4F38111405C8DF8120005AA032140F2B4
:103B9000264001F069FF18B14FF0FF3006B010BDAC
:103BA00004AA032140F22A4001F05EFF10B14FF059
:103BB000FF30F3E7019805900098049004F00400AA
:103BC00058B19DF8140040F001008DF814009DF8E4
:103BD000100040F001008DF8100004F0200058B1F2
:103BE0009DF8150040F001008DF815009DF81100BA
:103BF00040F001008DF8110004F4807058B19DF878
:103C0000160040F001008DF816009DF8120040F0FB
:103C100001008DF8120005AA03214FF4886001F01D
:103C200023FF10B14FF0FF30B8E704AA032140F2A0
:103C3000314001F019FF10B14FF0FF30AEE70648F8
:103C400004810020AAE700004CCD6C000CC92C00B8
:103C5000365676002646660050010020F8B5054627
:103C60000E464FF47A7095FBF0F000FB06F4200E40
:103C70008DF80000200C8DF80100200A8DF802005C
:103C8000E0B28DF803006A4604214FF4AE7001F0F3
:103C9000EBFEF8BD38B50446052094FBF0F084B285
:103CA00020128DF80000E0B28DF801006A46022172
:103CB0004FF4AD7001F0D8FE38BD38B5044605208C
:103CC00094FBF0F084B220128DF80000E0B28DF881
:103CD00001006A4602214FF4AC7001F0C5FE38BD08
:103CE00038B504460020009004F0010020B19DF892
:103CF000000040F03000009004F0020020B19DF878
:103D0000000040F00C00009004F0040020B19DF889
:103D1000000040F0030000906A4601214FF4A470B7
:103D200001F0A2FE38BD38B50446012C01DA0124A9
:103D300002E0042C00DD0424601EC0B200906A463C
:103D4000012140F24F1001F08FFE38BD2DE9FC47F4
:103D500006460F4606F0070010B1B7F5C86F03DD41
:103D60004FF0FF30BDE8FC87384602F05DFF81462A
:103D7000594902F00FFE8046684600F023FF9DF887
:103D80000000022806D0042816D0082826D01028C3
:103D900048D135E04FF08D41404602F08DFF81461D
:103DA00002F00AFF84B24D49404602F085FF814689
:103DB00002F002FF85B238E04FF08C41404602F03D
:103DC0007BFF814602F0F8FE84B24549404602F08E
:103DD00073FF814602F0F0FE85B226E04FF08B4182
:103DE000404602F069FF814602F0E6FE84B23D499A
:103DF000404602F061FF814602F0DEFE85B214E02B
:103E00004FF08A41404602F057FF814602F0D4FE4F
:103E100084B23549404602F04FFF814602F0CCFEA5
:103E200085B202E04FF0FF309CE700BF20128DF812
:103E30000400E0B28DF8050028128DF80600E8B203
:103E40008DF8070006F00100A0B101AA02214FF48D
:103E5000EA7001F009FE10B14FF0FF3082E70DF17A
:103E6000060202214FF4927001F0FEFD10B14FF0F6
:103E7000FF3077E706F00200A0B101AA02214FF45B
:103E8000EC7001F0F1FD10B14FF0FF306AE70DF179
:103E9000060202214FF4947001F0E6FD10B14FF0DC
:103EA000FF305FE706F00400A0B101AA02214FF441
:103EB000EE7001F0D9FD10B14FF0FF3052E70DF177
:103EC000060202214FF4967001F0CEFD10B14FF0C2
:103ED000FF3047E7002045E7000048430000404628
:103EE0000000C045000040450000C04438B504460D
:103EF000052094FBF0F085B228128DF80000E8B29E
:103F00008DF801006A4602214FF4EF7001F0ACFD1C
:103F100038BD38B50446052094FBF0F085B2281270
:103F20008DF80000E8B28DF801006A4602214FF4D6
:103F3000ED7001F099FD38BD00BF054A128802F00E
:103F40004002002AF9D0C2B2014B1B1D1A807047F3
:103F5000004800407CB5054628494968087801AB0F
:103F600004220D21FDF735FA08B107207CBD9DF82C
:103F70000700C0F301109DF8041001F0E00140EAD1
:103F8000E1008DF800009DF80700C0F381009DF866
:103F9000051001F0E00140EAE1008DF801009DF814
:103FA000070000F003009DF8061001F0E00140EA70
:103FB000E1008DF8020000241CE01DF8040018B98F
:103FC000002045F8240013E00D4845F8240006E0E1
:103FD00055F824000B4902F06FFE45F824001DF847
:103FE0000400401EC0B20DF804000028F0D100BF4C
:103FF000601CC4B2032CE0DB0020B7E748000020BF
:104000007B14AE3E1D5A843F2DE9F04F87B0054624
:104010000C46914601208DF8100000208DF811000B
:10402000FE4A1268917CFD4A5268107804AB022265
:10403000FDF775FA20B14FF0FF3007B0BDE8F08F03
:10404000C820FFF753F900208DF81000F34A1268DA
:10405000D17BF24A5268107804AB0122FDF75FFA77
:1040600010B14FF0FF30E8E7EC4A12685179EB4AA3
:104070005268107804AB0122FDF751FA10B14FF0ED
:10408000FF30DAE7E54A1268917CE44A526810781A
:1040900004AB0122FDF743FA10B14FF0FF30CCE73B
:1040A000DE4A1268D17DDD4A5268107804AB0122E5
:1040B000FDF735FA10B14FF0FF30BEE7D74A12686E
:1040C0001179D64A5268107804AB0122FDF727FA1D
:1040D00010B14FF0FF30B0E70C208DF81000CF4A40
:1040E00012681179CD4A5268107804AB0122FDF7AD
:1040F00016FA10B14FF0FF309FE70F20FFF7F6F8E8
:10410000C648806A407A8DF81000C44A12689178D7
:10411000C24A5268107804AB0122FDF700FA10B1D0
:104120004FF0FF3089E7BD48806A007A8DF81000B3
:10413000BA4A12685178B94A5268107804AB012221
:10414000FDF7EDF910B14FF0FF3076E7B9F1000F50
:1041500007D0B248806A807A40F0E0008DF8100005
:1041600004E0AE48806A807A8DF81000AB4A12688D
:104170009179AA4A5268107804AB0122FDF7CFF971
:1041800010B14FF0FF3058E7B9F1000F07D0A34846
:10419000806AC07A40F0E0008DF8100003E0A0488B
:1041A000C07A8DF810009D4A1268D1799B4A5268F6
:1041B000107804AB0122FDF7B2F910B14FF0FF30D7
:1041C0003BE7B9F1000F02D0C820FFF78FF840207D
:1041D0008DF81000914A12681179904A526810784F
:1041E00004AB0122FDF79BF910B14FF0FF3024E73B
:1041F00078208DF81000894A12685179874A5268F0
:10420000107804AB0122FDF78AF910B14FF0FF30AE
:1042100013E783498889FFF769F800208DF81000BB
:104220007E4A126851797D4A5268107804AB0122A7
:10423000FDF775F910B14FF0FF30FEE6774A1268CE
:10424000917A764A5268107804AB0222FDF7C1F8E1
:1042500010B14FF0FF30F0E69DF811009DF81010FE
:1042600040EA012B0C209BFBF0F0C6B20020A860B6
:1042700068602860A06060602060824665E0674AF0
:104280001268D17A654A5268107804AB0C22FDF7A7
:10429000A0F810B14FF0FF30CFE69DF811009DF867
:1042A000101040EA012000B2ADF808009DF813009C
:1042B0009DF8121040EA012000B2ADF80A009DF806
:1042C00015009DF8141040EA012000B2ADF80C0072
:1042D000BDF90810206808442060BDF90A10606824
:1042E00008446060BDF90C10A0680844A0609DF807
:1042F00017009DF8161040EA012000B2ADF800004A
:104300009DF819009DF8181040EA012000B2ADF8A0
:1043100002009DF81B009DF81A1040EA012000B22F
:10432000ADF80400BDF90010286808442860BDF904
:104330000210686808446860BDF90410A868084461
:10434000A8600AF1010000F0FF0AB24597DB34488B
:10435000D0F800C02868C117090441EA10410704D9
:10436000624600233846FBF756FF32460023CDE96C
:104370000201FBF750FF28602948D0F800C06868A8
:10438000C117090441EA1041070462460023384678
:10439000FBF741FF32460023CDE90201FBF73BFF6B
:1043A00068601F48D0F800C0A868C117090441EA36
:1043B00010410704624600233846FBF72CFF3246C3
:1043C0000023CDE90201FBF726FFA8601448D0F8CE
:1043D00004C02068C117090441EA1041070462467D
:1043E00000233846FBF717FF32460023CDE90201D0
:1043F000FBF711FF20600A48D0F804C06068C117BD
:10440000090441EA10410704624600233846FBF7DD
:1044100002FF32460023CDE9020103E048000020FC
:10442000C07C0008FBF7F7FE60601148D0F804C0BC
:10443000A068C117090441EA10410704624600233D
:104440003846FBF7E8FE32460023CDE90201FBF7D0
:10445000E2FEA060A068002804DDA068A0F580301E
:10446000A06003E0A06800F58030A0600020E4E5D3
:10447000C07C00082DE9FC5F06460F4600253D493B
:104480004968087801AB03220D21FCF7A2FF10B1A7
:104490000720BDE8FC9F9DF8040000F01F008DF888
:1044A00004009DF8050000F01F008DF805009DF840
:1044B000060000F01F008DF80600002456E056F8B4
:1044C000240057F82410A0EB010BBBF1000F01DB17
:1044D000594601E0CBF10001084602F08DFB4FF098
:1044E0008F41009002F056FA814601A8005D68B342
:1044F0002149086802F098FB834659461F4802F09C
:1045000049FA804604E01E49404602F0D5FB804649
:1045100001A8005D401EC0B201A908550028F2D1D3
:104520004146484602F036FA83464FF07E5102F08B
:10453000CBFC82462AF0004B0F488169584602F0B6
:1045400087FC12D20120A04005430EE00A48016911
:10455000484602F07DFB05D307484169484602F012
:1045600077FC02D20120A0400543641C032CA6DB8B
:1045700028468EE748000020C07C000800B04C456B
:1045800054E3853F10B50446204600F00FF803467B
:10459000E01C00F00BF843EAC00083B2A01D00F05D
:1045A00005F843EA801083B2184610BD014691F920
:1045B0000020002A01DD00201EE091F90020002AE1
:1045C00001DA042018E091F90120002A01DD012020
:1045D00012E091F90120002A01DA05200CE091F99E
:1045E0000220002A01DD022006E091F90220002AC3
:1045F00001DA062000E00720704700008CB000BF01
:1046000000BF00BF0024FCF72FFCFCF796F9FCF775
:10461000D5F9FEF749FEFDF77BF80020FDF718F805
:104620000020FDF723F8FCF757FE4FF4A060FCF7DD
:10463000EDFF4FF4E13001F00FFBFDF74BFB632181
:1046400041F28730FDF7DEFD00218248FEF77AF85F
:10465000632141F28730FDF717FE00217D48FEF708
:1046600073F8632141F28730FDF792FE002179480B
:10467000FEF76EF8632141F28730FDF747FE002117
:104680007448FEF763F80120182373A200210090FC
:104690000F20FDF7DDFA0120182371A21C210090E4
:1046A0000020FDF7D5FAFDF7C5F803E0FCF7B8FFE9
:1046B000FDF7C0F800F036FA0028F7D1FCF7B0FF9C
:1046C000FDF7B8F801200C2368A2002100900846ED
:1046D000FDF7BEFA01200C2365A20F2100900020F7
:1046E000FDF7B6FA01200C2362A21F2100900020E2
:1046F000FDF7AEFA01200C235FA22F2100900020CD
:10470000FDF7A6FAFDF796F800205D490860A0E0E5
:104710000220FDF7E5FB5B4908600420FDF7E0FBA4
:104720005949086009AA0AA90BA800F0E9F800286D
:1047300064D153480830006808B9012000E0002027
:104740004F4908310860FCF747FC06AA07A908A8EA
:10475000FCF7F2FB03AA04A905A8FCF715FC01204D
:104760000C210346CDE90010002110200B9AFDF723
:1047700033F901200C210523CDE900100F21102071
:104780000A9AFDF729F901200C210523CDE9001033
:104790001F211020099AFDF71FF9BDF9140002F03E
:1047A0002BFA054601200C2103462A46CDE90010CC
:1047B00000214B20FDF710F9BDF9100002F01CFAA2
:1047C000054601200C2105232A46CDE900100F21C2
:1047D0004B20FDF701F9BDF90C0002F00DFA05467A
:1047E00001200C2105232A46CDE900101F214B2072
:1047F000FDF7F2F8FDF71EF8FBF7E6FF0B98FDF763
:104800007BFA054602F0BCF90446002C10DD0021BD
:104810001048FDF797FF00210E48FDF797FFA1B262
:104820000C48FDF791FFA1B20A48FDF791FF10E097
:10483000644200210748FDF787FF00210548FDF786
:1048400087FFA1B20348FDF77DFFA1B20148FDF744
:104850007DFF5DE70004004057616974696E670081
:10486000496E697469616C697365000050493A006A
:10487000524F3A0059413A0054454D503A00000019
:104880008C812142040000200800002070470000B5
:1048900070B50446002624F00104184890F824005E
:1048A00008B1002070BD1548807A10B94FF0FF3074
:1048B000F8E71248057C807A2040104908740846C1
:1048C000007CA04202D04FF0FF3600E0002614B971
:1048D0000A48007D18B1012001F050F902E00020E3
:1048E00001F04CF93CB100F0ABFC20B10348057479
:1048F0004FF0FF30D6E73046D4E7000048000020F4
:104900002DE9F04F99B004460D4616464FF07E57FC
:104910004FF000084FF000094FF0000A12A813A949
:1049200018AB0EAACDE9001014A916A8FEF7ACFE2C
:1049300018B1012019B0BDE8F08FBDF84C0000F4AB
:10494000807000287ED00E9802F056F983464FF012
:104950009D4102F01FF807460F9802F04DF983467B
:104960004FF09D4102F016F88046109802F044F98D
:1049700083464FF09D4102F00DF88146119802F0F8
:104980003BF983464FF09D4102F004F882463946D8
:104990004FF0804002F090F94946059002F08CF902
:1049A000414607904FF0404002F086F9514605908D
:1049B00002F082F90690079901F07EFF834601F02C
:1049C0004FFFCDE90801FEF727F94FF06632544B4F
:1049D000CDE90A0101F06AFCCDE90C0101F090F982
:1049E000206049464FF0804002F066F94946029047
:1049F00002F062F9414604904FF0404002F05CF949
:104A00004146029002F058F90390049902F05CFAD2
:104A100083464FF07E5101F04FFF059001F020FFDB
:104A2000CDE9080139464FF0804002F045F9414692
:104A3000039002F041F9494604904FF0804002F0A3
:104A40003BF900E068E05146039002F035F98346F7
:104A5000049901F031FF059001F002FFCDE9060154
:104A6000DDE90823FEF720FB4FF066322C4BCDE941
:104A70000A0101F01BFCCDE90C0101F041F92860AD
:104A80005146504602F018F949460490484602F053
:104A900013F941460390404602F00EF93946019061
:104AA000384602F009F90090019901F005FF0290E3
:104AB000039902F009FA8346049902F005FA059079
:104AC00001F0CEFECDE908015146384602F0F4F877
:104AD00049460490404602F0EFF80390049901F033
:104AE000EBFE4FF08041059002F0E6F8834601F0BE
:104AF000B7FECDE90601DDE90823FEF7D5FA4FF050
:104B00006632074BCDE90A0101F0D0FBCDE90C017B
:104B100001F0F6F8306001E002200BE7002009E721
:104B200066A64C4070B50024FCF7B6FA00F024F9F4
:104B3000002840D1782000F02FFFC4B20CB1012032
:104B400070BD7820FFF7A4FEC4B20CB10220F7E7D5
:104B5000C82000F0D3FEC4B20CB10320F0E7FEF78A
:104B600087FDC4B20CB10420EAE71548FFF70AFD3F
:104B70000546FEF7D7FFC4B20CB10520E0E740F2CE
:104B80007310FEF71DFCC4B20CB10620D8E7C82094
:104B9000FEF7F8FEC4B20CB10720D1E700F0A4FF85
:104BA00004460CB10820CBE7012000F0A3FDC4B2FD
:104BB0001CB10920C4E70A20C2E70020C0E70000BA
:104BC0007400002001461148407A30B1012807D016
:104BD000022808D003280CD108E0022008700BE05E
:104BE0000420087008E00820087005E01020087014
:104BF00002E04FF0FF30704700BF0448C07C18B19E
:104C000008784006000E08700020F4E748000020F5
:104C100001461348407A30B1012808D002280AD052
:104C2000032810D10BE04FF4804008800EE041F6DD
:104C30009C7008800AE04FF48050088006E04FF432
:104C40000060088002E04FF0FF30704700BF04486A
:104C5000C07C10B10888401008800020F5E70000F3
:104C60004800002001460248007C08700020704780
:104C70004800002001460F48007A30B1012807D0D3
:104C8000022809D003280FD10AE0FA2008800EE09C
:104C90004FF4FA7008800AE04FF47A70088006E05A
:104CA0004FF4FA60088002E00020088000BF00BFD7
:104CB000002070474800002001460E48007A30B1BD
:104CC000012807D0022808D003280CD108E00A48A0
:104CD00008600BE00948086008E00948086005E042
:104CE0000848086002E04FF0FF30704700BF002026
:104CF000FBE700004800002000000343000083425F
:104D0000333303423333834101461248C07A0828C3
:104D100017D2DFE800F01704070A0D101318BC20A3
:104D2000088013E06220088010E02A2008800DE04F
:104D3000142008800AE00A20088007E00520088087
:104D400004E000BF00BF0020088000BF00BF0020BB
:104D500070470000480000200146064890F82400F3
:104D600010B14FF0FF3070470248C0890880002022
:104D7000F9E70000480000201CB580208DF80000F5
:104D8000654A1268917C644A526810786B46012229
:104D9000FCF7C5FB10B14FF0FF301CBD6420FEF7DF
:104DA000A5FA00208DF800005B4A1268917C5A4AEF
:104DB000526810786B460122FCF7B1FB10B14FF03E
:104DC000FF30EAE7544A1268917D534A52681078DE
:104DD0006B460622FCF7FDFA10B14FF0FF30DCE71E
:104DE0009DF80500C007400F9DF8031001F0010178
:104DF00040EA41009DF8011001F0010140EA010480
:104E000094B1012C03D101214348C17431E0022C3B
:104E100003D100214048C1742BE021463FA0FBF79D
:104E20001FFA4FF0FF30B8E73B4A1268D1783A4A90
:104E3000526810786B460122FCF7CBFA10B14FF0A4
:104E4000FF30AAE79DF8000000F00F042CB93D48A0
:104E5000FBF706FA4FF0FF309FE7042C06D13AA08B
:104E6000FBF7FEF901212C48C17402E000212A4819
:104E7000C174FF2128488172FF2027490872FF2151
:104E800025484172C1724FF6FF71C181FF21017443
:104E900081740121017380F82210002180F8231011
:104EA000417501751630016041608160163880F8E7
:104EB000241080F82510C1844FF4FA6000F062FCE1
:104EC00010B14FF0FF3068E7022000F02BFB10B16B
:104ED0004FF0FF3061E72A2000F0CEFC10B14FF018
:104EE000FF305AE7322000F009FD10B14FF0FF30DB
:104EF00053E70020FFF7CCFC10B14FF0FF304CE738
:104F0000002000F051FB10B14FF0FF3045E70020CA
:104F100000F042FD002040E748000020556E737508
:104F200070706F7274656420736F667477617265F8
:104F30002070726F64756374207265762025642E0C
:104F40000A000000009C000848616C662073656ED2
:104F50007369746976697479207061727420666F00
:104F6000756E642E0A0000002DE9F04385B00546F9
:104F70000E4690469946294890F8250020B14FF0FA
:104F8000FF3005B0BDE8F08316B94FF0FF30F8E709
:104F9000002423E0281B102801DD102000E0281B3E
:104FA00087B232193946204600F05EFD10B14FF04D
:104FB000FF30E6E701AA3946204600F001F910B1BA
:104FC0004FF0FF30DDE730193A4601A9FBF72CFA24
:104FD00010B16FF00100D4E7E01984B2AC42D9DB24
:104FE0004FEA28208DF8000008F0FF008DF801003E
:104FF0000A4A1268917E094A526810786B4602226A
:10500000FCF78DFA10B14FF0FF30BAE701210348E9
:1050100080F82510A0F826900020B2E74800002074
:1050200038B50446282C02DD4FF0FF3038BDDCB91E
:10503000002000F0EBFB00208DF8000007208DF829
:1050400001002E4A1268917C2C4A526810786B46F7
:105050000222FCF764FA10B14FF0FF30E6E70021BE
:10506000264801750020E1E7012000F0CFFB202059
:105070008DF80000012C06D100208DF801000520DC
:1050800000F0FAFB17E0052C06DC01208DF801008A
:10509000052000F0F1FB0EE0142C06DC02208DF858
:1050A00001000A2000F0E8FB05E003208DF8010074
:1050B000142000F0E1FB9DF80100072101EB8010B6
:1050C000C0B28DF801000D4A1268917C0B4A5268FB
:1050D00010786B460222FCF722FA10B14FF0FF3035
:1050E000A4E708210548817200210173012101759F
:1050F0000020FFF7CDFB002098E7000048000020CB
:10510000F8B504460F4616462C4890F8240010B90E
:105110004FF0FF30F8BD2948807A10B94FF0FF30CA
:10512000F8E7264A1268917A244A526810786B464A
:105130000222FCF74EF910B14FF0FF30EAE79DF87C
:1051400001009DF8001040EA0125A54203DA002085
:105150003070401EDEE7194840684088B5EB600FAC
:1051600017DD164A1268517C144A526810786B4653
:105170000122FCF72EF910B14FF0FF30CAE79DF87D
:10518000000000F0100020B100F05AF86FF00100AC
:10519000C0E7E2B2094B1B68D97A084B5B68187804
:1051A0003B46FCF716F910B14FF0FF30B2E795FB24
:1051B000F4F0401E30700020ACE7000048000020F2
:1051C000F8B504460D46164616B94FF0FF30F8BD47
:1051D0001A48807A10B94FF0FF30F8E720128DF8A6
:1051E0000000E0B28DF801009DF801002844134949
:1051F00049684989884202DD4FF0FF30E7E70F4AEE
:105200001268117E0D4A526810786B460222FCF734
:1052100086F910B14FF0FF30D9E7EAB2074B1B68AF
:10522000597D064B5B6818783346FCF7D2F810B10D
:105230004FF0FF30CBE70020C9E700004800002016
:1052400008B57048807A10B94FF0FF3008BD0020D3
:1052500000906C4A1268D17B6A4A526810786B469B
:105260000122FCF75CF910B14FF0FF30EEE7654A20
:1052700012685179634A526810786B460122FCF734
:105280004EF910B14FF0FF30E0E75E4A1268117935
:105290005C4A526810786B460122FCF740F910B165
:1052A0004FF0FF30D2E7574890F82400002853D041
:1052B0000C200090534A12681179524A52681078B3
:1052C0006B460122FCF72BF910B14FF0FF30BDE720
:1052D0003220FEF70BF8C02000904A48807A00F098
:1052E000010020B19DF8000040F020000090454AE8
:1052F00012681179434A526810786B460122FCF714
:105300000EF910B14FF0FF30A0E73E48407C10B1DD
:105310000220009001E0002000903A4A1268D17B00
:10532000384A526810786B460122FCF7F8F810B141
:105330004FF0FF308AE700200090324A126851791E
:10534000304A526810786B460122FCF7E8F80028D2
:1053500055D04FF0FF3079E704200090294A1268B9
:105360001179284A526810786B460122FCF7D7F869
:1053700010B14FF0FF3069E72248807C20B9214806
:10538000807A00F0010010B94020009001E0602018
:1053900000901C4A126811791A4A526810786B46BC
:1053A0000122FCF7BCF810B14FF0FF304EE732207D
:1053B000FDF79CFF1348407C10B10120009001E0F4
:1053C000002000900F4A1268D17B0E4A5268107874
:1053D0006B460122FCF7A3F810B14FF0FF3035E720
:1053E000084A12685179074A52681078054B103301
:1053F0000122FCF794F810B14FF0FF3026E70020AF
:1054000024E70000480000202DE9F04F8DB08346CE
:105410000F4602200C90424890F8240020B1002052
:1054200000F068F9012600E0002603A8FFF722FC3F
:1054300005A8FFF7C7FB01A8FFF766FC02A8FFF766
:105440008BFC374890F80AA004A8FFF70BFC002457
:1054500007E0002239465846FEF7D6FD00B902E0C3
:10546000641C022CF5DB00BF022C01D1002528E0D2
:10547000002407E0012206A909A8FEF7C5FD00B92E
:1054800002E0641C022CF5DB00BF022C01D10025D8
:1054900017E006A93846FDF76BFB00F0FF0809A9E5
:1054A0005846FEF7E7FF00F0FF090025B9F1000FAD
:1054B00001D145F00105B8F1000F01D145F0020519
:1054C00000BFFF2016490872FF2115484172C172C2
:1054D0004FF6FF71C181FF218172017401210173B7
:1054E000BDF80C0000F04EF99DF8140000F01AF819
:1054F000BDF8040000F0C0F9BDF8080000F0FEF9A6
:10550000504600F049FA9DF81000FFF7C1F916B1B6
:10551000012000F0EFF828460DB0BDE8F08F000044
:105520004800002038B504461E48807A10B94FF074
:10553000FF3038BD022C06D0042C07D0082C08D030
:10554000102C0CD108E0002000900BE00820009007
:1055500008E01020009005E01820009002E04FF0D5
:10556000FF30E6E700BF0F48407A9DF80010B0EB2F
:10557000E10F01D10020DCE70A4A1268D179094A1B
:10558000526810786B460122FBF7C9FF10B14FF04B
:10559000FF30CEE79DF80000C110024841720020A4
:1055A000C7E700004800002038B504465048807C1A
:1055B000A04201D1002038BD002C46D04C4A1268D0
:1055C00011794B4A526810786B460122FBF701FFB4
:1055D00010B14FF0FF30EEE79DF8000020F0200002
:1055E0000090434A12681179414A526810786B461C
:1055F0000122FBF794FF10B14FF0FF30DBE70320EF
:10560000FDF774FE02200090394890F8220020B186
:105610009DF8000040F080000090354890F823008D
:1056200020B19DF8000040F030000090304A126830
:10563000117D2F4A526810786B460122FBF76FFFED
:10564000002851D04FF0FF30B5E7294A1268117990
:10565000274A526810786B460122FBF7BAFE10B158
:105660004FF0FF30A7E72248807A00F0010028B110
:105670009DF8000040F02000009004E09DF800003C
:1056800020F0200000901A4A12681179184A5268D6
:1056900010786B460122FBF742FF10B14FF0FF304C
:1056A00089E70320FDF722FE114890F8220010B18F
:1056B0008020009001E0002000900D4890F8230029
:1056C00020B19DF8000040F030000090084A1268B8
:1056D000117D074A526810786B460122FBF71FFFC5
:1056E00010B14FF0FF3066E701488474002062E794
:1056F0004800002038B50446214890F82400A04214
:1057000001D1002038BD24B31D4890F8250010B900
:105710004FF0FF30F6E7002000F030FA0020FFF7EE
:1057200043FF1749C88C00F0E9F8002000901449A5
:10573000496808786B4601222321FBF7F0FE01211E
:105740000F4880F82410012000F018FAFFF778FDC8
:1057500013E0002000F012FA0948007C009008498C
:10576000496808786B4601222321FBF7D8FE002107
:10577000034880F82410FFF763FD0020C2E7000013
:105780004800002038B504461F48807A10B94FF011
:10579000FF3038BDFA2C09D0B4F5FA7F09D0B4F542
:1057A0007A7F09D0B4F5FA6F0CD108E000200090A0
:1057B0000BE00820009008E01020009005E0182081
:1057C000009002E04FF0FF30E3E700BF0E48007AA0
:1057D0009DF80010B0EBE10F01D10020D9E70A4A93
:1057E00012689179084A526810786B460122FBF7DB
:1057F00096FE10B14FF0FF30CBE79DF80000C010CF
:10580000014908720020C4E74800002038B504466A
:10581000184890F82300A04201D1002038BD14B1EF
:105820003020009001E0002000901248807C20B1E0
:105830009DF8000040F0020000900E4890F8220011
:1058400020B19DF8000040F080000090094A1268E5
:10585000117D084A526810786B460122FBF75FFE03
:1058600010B14FF0FF30D9E7024880F82340002004
:10587000D4E700004800002038B504461E48807A6E
:1058800010B94FF0FF3038BDBC2C02DB0120009076
:1058900015E0622C02DB0220009010E02A2C02DBD3
:1058A000032000900BE0142C02DB0420009006E0A3
:1058B0000A2C02DB0520009001E0062000900E4833
:1058C000C07A9DF80010884201D10020DBE70A4A27
:1058D00012689178084A526810786B460122FBF7EB
:1058E0001EFE10B14FF0FF30CDE79DF800100248CA
:1058F000C1720020C7E700004800002038B5044608
:105900002448807A10B94FF0FF3038BD214890F814
:10591000240010B14FF0FF30F7E71E48007D50B172
:1059200034B1282C04DCE0B2FFF77AFB0020ECE76E
:105930000020FFF775FB042C01DA042404E0B4F521
:105940007A7F01DD4FF47A744FF47A7090FBF4F0B3
:10595000401EC0B200900F4A126851780D4A52683A
:1059600010786B460122FBF7DAFD10B14FF0FF30E3
:10597000CBE79DF80000401C4FF47A7191FBF0F0EA
:1059800081B20448C1810146C9894810FFF774FFFC
:105990000020BAE74800002038B5044604F0700043
:1059A00010B10120009005E014B10020009001E04A
:1059B000402000902B4A1268917C2A4A5268107845
:1059C0006B460122FBF7ABFD20B100212548817217
:1059D000481E38BD9DF8000020F0400121480173A9
:1059E0000020009004F0400020B99DF8000040F035
:1059F0000400009004F0200020B99DF8000040F061
:105A00000200009004F0100020B99DF8000040F062
:105A10000100009004F0080020B99DF8000040F05B
:105A2000380000900F4A1268D17C0E4A52681078F4
:105A30006B460122FBF773FD20B1002109488172FA
:105A4000481EC6E724B1082C02D00020FFF7DEFE76
:105A500004488472002101753220FDF747FC0020C4
:105A6000B7E7000048000020F8B504460D4616468A
:105A700016B94FF0FF30F8BD1A48807A10B94FF0D0
:105A8000FF30F8E720128DF80000E0B28DF8010039
:105A90009DF801002844134949684989884202DD7C
:105AA0004FF0FF30E7E70F4A1268117E0D4A526847
:105AB00010786B460222FBF732FD10B14FF0FF3039
:105AC000D9E7EAB2074B1B68597D064B5B6818782B
:105AD0003346FBF724FD10B14FF0FF30CBE7002039
